:020000020000FC
:100000000C9424002D9A2D98FDCF2D9A00002D9848
:10001000FCCF2D9A000000002D98FBCF2D9A0000F8
:10002000000000002D98FACF2D9A0000000000007B
:100030002D980000F9CF2D9A00000000000000006C
:100040002D9800000000F7CFF8940FE304B90C944A
:1000500029000FE304B902E2889405B90795FDCFA2
:100060000AEA1AEA2AEA08E818E828E805B98894AA
:10007000079505B9179515B9279525B9F9CF0FE358
:1000800005B900E210E128E034E042E051E005B9B2
:1000900015B925B935B945B955B9F9CF00E22D9A49
:1000A0002D982C9A2C982B9A2B982A9A2A98299A30
:1000B000299801E005B900E005B9F1CF00E200930D
:1000C000250000E10093250008E00093250004E0EE
:1000D0000093250002E00093250001E00093250035
:1000E00000E2EDCF0FE304B91FE30AE2012705B9EF
:0A00F000012705B9012705B9F9CF72
:00000001FF
