:100000000C9434000C943E000C943E000C943E0082
:100010000C943E000C943E000C943E000C943E0068
:100020000C943E000C943E000C943E000C943E0058
:100030000C943E000C943E000C943E000C943E0048
:100040000C943E000C943E000C943E000C943E0038
:100050000C943E000C943E000C943E000C943E0028
:100060000C943E000C943E0011241FBECFEFD4E050
:10007000DEBFCDBF0E9450000C945D000C940000C8
:10008000F89405E515E505B9079515B91795FBCF62
:100090000895F8942D9A000000002D98FBCF089544
:1000A0008FE384B9F89405E515E505B9079515B909
:0E00B0001795FBCF80E090E00895F894FFCF05
:00000001FF
